{
  "contractName": "Inherit",
  "abi": [
    {
      "inputs": [],
      "payable": true,
      "stateMutability": "payable",
      "type": "constructor"
    },
    {
      "constant": true,
      "inputs": [],
      "name": "amountHeirs",
      "outputs": [
        {
          "internalType": "uint256",
          "name": "",
          "type": "uint256"
        }
      ],
      "payable": false,
      "stateMutability": "view",
      "type": "function"
    },
    {
      "constant": true,
      "inputs": [],
      "name": "amountInCharge",
      "outputs": [
        {
          "internalType": "uint8",
          "name": "",
          "type": "uint8"
        }
      ],
      "payable": false,
      "stateMutability": "view",
      "type": "function"
    },
    {
      "constant": true,
      "inputs": [],
      "name": "amountInheritance",
      "outputs": [
        {
          "internalType": "uint256",
          "name": "",
          "type": "uint256"
        }
      ],
      "payable": false,
      "stateMutability": "view",
      "type": "function"
    },
    {
      "constant": true,
      "inputs": [
        {
          "internalType": "uint256",
          "name": "",
          "type": "uint256"
        }
      ],
      "name": "heirs",
      "outputs": [
        {
          "internalType": "address payable",
          "name": "account",
          "type": "address"
        },
        {
          "internalType": "uint8",
          "name": "percentage",
          "type": "uint8"
        },
        {
          "internalType": "uint256",
          "name": "payoutOrder",
          "type": "uint256"
        }
      ],
      "payable": false,
      "stateMutability": "view",
      "type": "function"
    },
    {
      "constant": true,
      "inputs": [
        {
          "internalType": "uint256",
          "name": "",
          "type": "uint256"
        }
      ],
      "name": "managers",
      "outputs": [
        {
          "internalType": "address",
          "name": "",
          "type": "address"
        }
      ],
      "payable": false,
      "stateMutability": "view",
      "type": "function"
    },
    {
      "constant": true,
      "inputs": [],
      "name": "owner",
      "outputs": [
        {
          "internalType": "uint256",
          "name": "ci",
          "type": "uint256"
        },
        {
          "internalType": "uint256",
          "name": "birthDate",
          "type": "uint256"
        },
        {
          "internalType": "string",
          "name": "addressP",
          "type": "string"
        },
        {
          "internalType": "string",
          "name": "phoneNumber",
          "type": "string"
        },
        {
          "internalType": "string",
          "name": "email",
          "type": "string"
        },
        {
          "internalType": "uint256",
          "name": "hireDate",
          "type": "uint256"
        }
      ],
      "payable": false,
      "stateMutability": "view",
      "type": "function"
    },
    {
      "constant": false,
      "inputs": [
        {
          "internalType": "address payable",
          "name": "heirAccount",
          "type": "address"
        },
        {
          "internalType": "uint8",
          "name": "heirPercentage",
          "type": "uint8"
        },
        {
          "internalType": "uint256",
          "name": "heirPayoutOrder",
          "type": "uint256"
        }
      ],
      "name": "addHeir",
      "outputs": [],
      "payable": false,
      "stateMutability": "nonpayable",
      "type": "function"
    },
    {
      "constant": false,
      "inputs": [
        {
          "internalType": "address payable",
          "name": "heirAccount",
          "type": "address"
        }
      ],
      "name": "removeHeir",
      "outputs": [],
      "payable": false,
      "stateMutability": "nonpayable",
      "type": "function"
    }
  ],
  "bytecode": "0x60806040524760005560006001556000600360006101000a81548160ff021916908360ff1602179055506040518060c001604052806210f4478152602001690c7cf713ad3ada888d5e81526020016040518060400160405280601281526020017f6a666173666b73646b6c6a666c6b61736a66000000000000000000000000000081525081526020016040518060400160405280600581526020017f70686f6e6500000000000000000000000000000000000000000000000000000081525081526020016040518060400160405280600581526020017f656d61696c00000000000000000000000000000000000000000000000000000081525081526020016914f55e96d425a3888d5e8152506009600082015181600001556020820151816001015560408201518160020190805190602001906200014092919062000344565b5060608201518160030190805190602001906200015f92919062000344565b5060808201518160040190805190602001906200017e92919062000344565b5060a0820151816005015590505060026040518060600160405280737ac305928c723d7d4c8a612a80372f5316ff3ae673ffffffffffffffffffffffffffffffffffffffff168152602001600160ff16815260200160018152509080600181540180825580915050906001820390600052602060002090600202016000909192909190915060008201518160000160006101000a81548173ffffffffffffffffffffffffffffffffffffffff021916908373ffffffffffffffffffffffffffffffffffffffff16021790555060208201518160000160146101000a81548160ff021916908360ff16021790555060408201518160010155505050735e41814b7a7ab6afce148e9d0ae8d79e88259fcf60046000600581106200029c57fe5b0160006101000a81548173ffffffffffffffffffffffffffffffffffffffff021916908373ffffffffffffffffffffffffffffffffffffffff160217905550733155590fca8867c0adcfdee9c7b314408b2905716004600160058110620002ff57fe5b0160006101000a81548173ffffffffffffffffffffffffffffffffffffffff021916908373ffffffffffffffffffffffffffffffffffffffff160217905550620003f3565b828054600181600116156101000203166002900490600052602060002090601f016020900481019282601f106200038757805160ff1916838001178555620003b8565b82800160010185558215620003b8579182015b82811115620003b75782518255916020019190600101906200039a565b5b509050620003c79190620003cb565b5090565b620003f091905b80821115620003ec576000816000905550600101620003d2565b5090565b90565b610dad80620004036000396000f3fe608060405234801561001057600080fd5b50600436106100885760003560e01c80638da5cb5b1161005b5780638da5cb5b146101b9578063936424061461032957806398f36ff214610384578063ebb9d2e3146103a857610088565b80631c0795c31461008d57806338cbd5861461010f5780633d39c2601461012d578063584f91161461019b575b600080fd5b6100b9600480360360208110156100a357600080fd5b81019080803590602001909291905050506103ec565b604051808473ffffffffffffffffffffffffffffffffffffffff1673ffffffffffffffffffffffffffffffffffffffff1681526020018360ff1660ff168152602001828152602001935050505060405180910390f35b610117610450565b6040518082815260200191505060405180910390f35b6101596004803603602081101561014357600080fd5b8101908080359060200190929190505050610456565b604051808273ffffffffffffffffffffffffffffffffffffffff1673ffffffffffffffffffffffffffffffffffffffff16815260200191505060405180910390f35b6101a3610489565b6040518082815260200191505060405180910390f35b6101c161048f565b60405180878152602001868152602001806020018060200180602001858152602001848103845288818151815260200191508051906020019080838360005b8381101561021b578082015181840152602081019050610200565b50505050905090810190601f1680156102485780820380516001836020036101000a031916815260200191505b50848103835287818151815260200191508051906020019080838360005b83811015610281578082015181840152602081019050610266565b50505050905090810190601f1680156102ae5780820380516001836020036101000a031916815260200191505b50848103825286818151815260200191508051906020019080838360005b838110156102e75780820151818401526020810190506102cc565b50505050905090810190601f1680156103145780820380516001836020036101000a031916815260200191505b50995050505050505050505060405180910390f35b6103826004803603606081101561033f57600080fd5b81019080803573ffffffffffffffffffffffffffffffffffffffff169060200190929190803560ff16906020019092919080359060200190929190505050610681565b005b61038c6109dd565b604051808260ff1660ff16815260200191505060405180910390f35b6103ea600480360360208110156103be57600080fd5b81019080803573ffffffffffffffffffffffffffffffffffffffff1690602001909291905050506109f0565b005b600281815481106103f957fe5b90600052602060002090600202016000915090508060000160009054906101000a900473ffffffffffffffffffffffffffffffffffffffff16908060000160149054906101000a900460ff16908060010154905083565b60015481565b6004816005811061046357fe5b016000915054906101000a900473ffffffffffffffffffffffffffffffffffffffff1681565b60005481565b6009806000015490806001015490806002018054600181600116156101000203166002900480601f0160208091040260200160405190810160405280929190818152602001828054600181600116156101000203166002900480156105355780601f1061050a57610100808354040283529160200191610535565b820191906000526020600020905b81548152906001019060200180831161051857829003601f168201915b505050505090806003018054600181600116156101000203166002900480601f0160208091040260200160405190810160405280929190818152602001828054600181600116156101000203166002900480156105d35780601f106105a8576101008083540402835291602001916105d3565b820191906000526020600020905b8154815290600101906020018083116105b657829003601f168201915b505050505090806004018054600181600116156101000203166002900480601f0160208091040260200160405190810160405280929190818152602001828054600181600116156101000203166002900480156106715780601f1061064657610100808354040283529160200191610671565b820191906000526020600020905b81548152906001019060200180831161065457829003601f168201915b5050505050908060050154905086565b600081116106da576040517f08c379a0000000000000000000000000000000000000000000000000000000008152600401808060200182810382526023815260200180610d1d6023913960400191505060405180910390fd5b60008090506000600280549050905060008090505b8181101561088e578573ffffffffffffffffffffffffffffffffffffffff166002828154811061071b57fe5b906000526020600020906002020160000160009054906101000a900473ffffffffffffffffffffffffffffffffffffffff1673ffffffffffffffffffffffffffffffffffffffff1614156107d7576040517f08c379a00000000000000000000000000000000000000000000000000000000081526004018080602001828103825260138152602001807f4865697220616c7265616479206578697374730000000000000000000000000081525060200191505060405180910390fd5b83600282815481106107e557fe5b906000526020600020906002020160010154141561084e576040517f08c379a000000000000000000000000000000000000000000000000000000000815260040180806020018281038252602f815260200180610cee602f913960400191505060405180910390fd5b6002818154811061085b57fe5b906000526020600020906002020160000160149054906101000a900460ff1660ff168301925080806001019150506106ef565b5060648460ff16830111156108ee576040517f08c379a0000000000000000000000000000000000000000000000000000000008152600401808060200182810382526039815260200180610d406039913960400191505060405180910390fd5b600260405180606001604052808773ffffffffffffffffffffffffffffffffffffffff1681526020018660ff168152602001858152509080600181540180825580915050906001820390600052602060002090600202016000909192909190915060008201518160000160006101000a81548173ffffffffffffffffffffffffffffffffffffffff021916908373ffffffffffffffffffffffffffffffffffffffff16021790555060208201518160000160146101000a81548160ff021916908360ff160217905550604082015181600101555050506001600081548092919060010191905055505050505050565b600360009054906101000a900460ff1681565b600160028054905011610a6b576040517f08c379a000000000000000000000000000000000000000000000000000000000815260040180806020018281038252601b8152602001807f43616e6e6f742072656d6f766520746865206f6e6c792068656972000000000081525060200191505060405180910390fd5b60008090505b600280549050811015610c55578173ffffffffffffffffffffffffffffffffffffffff1660028281548110610aa257fe5b906000526020600020906002020160000160009054906101000a900473ffffffffffffffffffffffffffffffffffffffff1673ffffffffffffffffffffffffffffffffffffffff161415610c485760028181548110610afd57fe5b9060005260206000209060020201600080820160006101000a81549073ffffffffffffffffffffffffffffffffffffffff02191690556000820160146101000a81549060ff021916905560018201600090555050600260016002805490500381548110610b6657fe5b906000526020600020906002020160028281548110610b8157fe5b90600052602060002090600202016000820160009054906101000a900473ffffffffffffffffffffffffffffffffffffffff168160000160006101000a81548173ffffffffffffffffffffffffffffffffffffffff021916908373ffffffffffffffffffffffffffffffffffffffff1602179055506000820160149054906101000a900460ff168160000160146101000a81548160ff021916908360ff160217905550600182015481600101559050506002805480919060019003610c469190610c59565b505b8080600101915050610a71565b5050565b815481835581811115610c8657600202816002028360005260206000209182019101610c859190610c8b565b5b505050565b610cea91905b80821115610ce657600080820160006101000a81549073ffffffffffffffffffffffffffffffffffffffff02191690556000820160146101000a81549060ff0219169055600182016000905550600201610c91565b5090565b9056fe416e206865697220616c72656164792065786973747320696e2074686174207061796f757420706f736974696f6e2e5061796f7574206f72646572206d7573742062652067726561746572207468616e2030416464696e672074686973206865697220776974682070657263656e7461676520776f756c6420657863656564203130302070657263656e74a265627a7a72315820b7eb61b5da6af5a09182afd35b2aaf9450c8800aeffa6a6d4acc4cf68c4c9dc664736f6c63430005100032",
  "source": "pragma solidity ^0.5.1;\n\ncontract Inherit {\n    struct Person {\n        uint256 ci;\n        uint birthDate;\n        string addressP;\n        string phoneNumber;\n        string email;\n        uint hireDate;\n    }\n    \n    struct Heir {\n        address payable account;\n        uint8 percentage;\n        uint payoutOrder;\n    }\n    \n    uint public amountInheritance = address(this).balance;\n    \n    uint public amountHeirs = 0;\n    Heir[] public heirs;\n    \n    uint8 public amountInCharge = 0;\n    address[5] public managers;\n    \n    Person public owner ;\n    \n    //Debe recibir owner, un heredero y dos managers.\n    constructor() public payable {\n        owner = Person ({\n            ci : 1111111,\n            birthDate : 58973597823795938757982,\n            hireDate : 98973597823795938757982,\n            addressP : \"jfasfksdkljflkasjf\",\n            phoneNumber : \"phone\",\n            email : \"email\"\n        });\n        heirs.push(Heir({\n          account: 0x7ac305928C723d7D4C8A612A80372f5316Ff3aE6,\n          percentage: 1,\n          payoutOrder: 1\n        }));\n        managers[0] = 0x5e41814b7A7ab6afcE148E9D0ae8D79e88259Fcf;\n        managers[1] = 0x3155590fCA8867c0adCFDEe9c7b314408b290571;\n    }\n    \n    //Cada heredero debe ser designado con el porcentaje que debe recibir de herencia\n    function addHeir (address payable heirAccount, uint8 heirPercentage, uint heirPayoutOrder) public{\n        require(heirPayoutOrder > 0, \"Payout order must be greater than 0\");\n        uint percentage = 0;\n        uint length = heirs.length;\n        for (uint j = 0; j < length; j++) {\n            require(heirs[j].account != heirAccount, \"Heir already exists\");\n            require(heirs[j].payoutOrder != heirPayoutOrder, \"An heir already exists in that payout position.\");\n            percentage += heirs[j].percentage;\n        }\n        \n        require(percentage + heirPercentage <= 100, \"Adding this heir with percentage would exceed 100 percent\");\n        heirs.push(Heir({account: heirAccount, percentage:heirPercentage, payoutOrder: heirPayoutOrder}));\n        amountHeirs++;\n    }\n    \n    function removeHeir(address payable heirAccount) public {\n        \n        require(heirs.length > 1, \"Cannot remove the only heir\");\n        for (uint j = 0; j < heirs.length; j++) {\n            if (heirs[j].account == heirAccount){\n                delete heirs[j];\n                heirs[j] = heirs[heirs.length - 1];\n                heirs.length--;\n            }\n            \n        }\n    }\n}",
  "sourcePath": "D:/Home/Repositories/blockchain/contracts/obligatorio.sol",
  "compiler": {
    "name": "solc",
    "version": "0.5.16+commit.9c3226ce.Emscripten.clang"
  },
  "schemaVersion": "3.2.2",
  "updatedAt": "2020-07-18T20:17:18.876Z",
  "networkType": "ethereum",
  "devdoc": {
    "methods": {}
  },
  "userdoc": {
    "methods": {}
  }
}